:100000000202C832000000000000003200000000C0
:10001000000000320000000000000032000000007C
:10002000000000320000000000000032000000006C
:1000300000000000000000000000000000000000C0
:10004000000000320000000000000032000000004C
:10005000000000320000000000000032000000003C
:10006000000000320000000000000032000000002C
:10007000000000000000000000000032000000004E
:10008000000000000000000000000032000000003E
:10009000000000320000000000000000000000002E
:1000A0000000003200000000000000320000AE023C
:1000B000E6F70809DEFA22C0E0741E1470FDD0E0F5
:1000C0000022740D1200CD740A1200CD223099FD69
:1000D000C299F5992274C811E111E1D5E0F9D8F57A
:1000E00022C0E0741911B71470FBD0E022AE82AFC9
:1000F00083908000A3F01200B71200B78E828F8326
:1001000022AE82AF8390800080EB743012010174C4
:100110000E12010174061201012274011201011272
:1001200000E1748012010122F874A60400000000AE
:100130000000000070F500D8F022AE02760008DE64
:10014000FB22780C313A200111C2D574082A14F828
:10015000E630E706B2D5780831BD20010F74102AC9
:1001600014F8E630E706B2D5781031BD781079087A
:1001700075F008EAA4FBE626F6C0D0BA0104D0D098
:10018000800BD0D0AE021E08E633F6DEFA780CAE55
:1001900002E633F608DEFAAE02780CE6970908DECE
:1001A000FA19781040127908C3780CAE02E697F677
:1001B0000908DEF9781019067908DBBA22AE02D3F5
:1001C000E6F43400F608DEF822C001791011AED052
:1001D00001C00174102A14F8E6C0E07808313A78BA
:1001E00008760AE9240FF9E4F719C0013142780CC6
:1001F000D001E62430F77810AE02E44608DEFC7049
:10020000E8D0E020010730E704742D19F7A801D0E9
:10021000017A10511622E6F760040809DAF8E4F7CB
:1002200022E660061200CD0880F722E66006120082
:10023000ED0880F7225153EC8EF0A4F8A9F0EC8F72
:10024000F0A429F9ED8EF0A429FDAC0030D50312FD
:10025000027822C2D5C004C005AC06AD07ED30E778
:1002600009B2D5120278AE04AF05D005D004ED3046
:10027000E705B2D512027822EDF4FDECF42401FC7E
:1002800050010D2275F010E4F8F9FAFBC3EC33FCD1
:10029000ED33FDEA33FAEB33FBC3EA9EF582EB9FC5
:1002A0004003FBAA82B3E833F8E933F9D5F0DDC3A4
:1002B00022200103120253120284AC00AD0120017E
:1002C0000630D50312027822758138C28E75985295
:1002D000758922758DF3D28E75200012010AC292A3
:1002E000D29078327A02087B08C2900000A2913343
:1002F000D2900000DBF3F618DAEDD292AC32AD33D7
:100300007E807F00D20151B1C2018C328D33AC327C
:10031000AD337E967F0051358C368D37AC36AD3798
:100320007E4D7F00D20151B1C2018C348D35311A1E
:10033000780BE88360061200ED0880F6020347544C
:10034000454D50203D200078347A027921D2013188
:10035000C9C2017821512B780BE88360061200EDA9
:100360000880F6020369204300780BE883600612D8
:1003700000CD0880F602038054454D50203D2000FA
:1003800078347A027921D20131C9C2017821512110
:10039000780BE88360061200CD0880F60203A220E5
:1003A000430011C274F431280202DE000000000094
:00000001FF
